:0300000002079163
:0C079100787FE4F6D8FD7581210207D8BE
:1008E700EF75F002A4FFAEF0EF1F70011E144E600B
:1008F70029000000000000000000000000000000C8
:1009070000000000000000000000000000000000E0
:0A091700000000000000000080CE88
:0109210022B3
:1009E800C2AFC2B27F3C1208E7D2B27F081208E752
:0C09F800A2B2920430B2FDD2AFA204B350
:010A040022CF
:10081D007F551208621203D9FF120862900001126F
:10082D0003F2FF1208629000021203F2FF12086237
:10083D009000031203F2FF1208629000041203F2FB
:10084D00FF1208629000051203F2FF120862900079
:05085D00061203F2FF8A
:02086200AD07E0
:10086400C2AF7C01EC60355D6017C2B200000000CD
:100874000000000000000000D2B27F081208E780E8
:1008840009C2B27F081208E7D2B2000000000000DB
:0E089400000000000000EC25E0FC80C8D2AFA0
:0108A2002233
:10092200E4FDC2AF7C01EC6026C2B2000000000010
:1009320000000000000000D2B27F011208E730B2CE
:1009420003EC42057F051208E7EC25E0FC80D7D2D4
:03095200AFAF053F
:01095500227F
:1009A5001209E84001221203D970047FCC800A1293
:1009B500081D9000071203F2FF1208627F44120817
:0309C50062D322D8
:10058600C2031209E840097F007EC07D797CC4223F
:100596001203D970047FCC800A12081D900007123E
:1005A60003F2FF1208627FBE120862120922AB072D
:1005B600120922AD07EDFCEBFD7F0F1208E7EC53A5
:1005C600040730E70DC3E49DF51AE49CF519D20340
:1005D60080048C198D1AE51AAE197804CEA2E71399
:1005E600CE13D8F8FDAC06EC1202298F1E8E1D8D97
:1005F6001C8C1BAB1EAA1DA91CA81BC000C001C0D9
:1006060002C0037C00E51A5404FDEC120229E4FB47
:10061600FA7980783E12011EC004C005C006C007E4
:100626007C00E51A5408FDEC120229E4FBFAF9787D
:100636003F12011ED003D002D001D00012002DC0FF
:1006460004C005C006C0077C00E51A5402FDEC1282
:100656000229E4FBFAF9783E12011ED003D002D03B
:1006660001D00012002DC004C005C006C0077C00E2
:10067600E51A5401FDEC1202297BD77AA37920787A
:100686003F12011ED003D002D001D00012002DD09F
:1006960003D002D001D00012002D8F1E8E1D8D1C9E
:0206A6008C1BAB
:0106A800222F
:10000E004552524F520A000000000000000000004E
:01001E0000E1
:03000300011F00DA
:1006A900780E7C007D007BFF7A0079157E007F0A39
:1006B9001203B375180AD2AFD2A97F587E02120964
:1006C9007E120A057B007A00791F1209A540107B6A
:1006D900FF7A00790E7D061209C8120A1D80E512FB
:1006E9000A1D7B007A00791F1205868F0B8E0A8DF1
:1006F900098C081202628E0C8F0D7C007D0A12048F
:100709001F7C007D0A12041FED2430F50EAE0CAFDC
:100719000D7C007D0A12041FED2430F50F75102E93
:10072900AC0CAD0DEC120229A804A905AA06AB0769
:10073900AF0BAE0AAD09AC08120029E4FBFA79C87F
:10074900784212011E1202628E0C8F0D7C007D0A06
:1007590012041FEF2430F511751220751320850E30
:1007690014850F1575162EF517751820751920851E
:100779000E1A850F1B751C2EF51D7B007A00790E4C
:080789007D101209C80206CD23
:0C0A1D007F057E347DC3DDFEDEFCDFFAC9
:010A290022AA
:03000600012100D5
:10097E00AB07AA06E4F9F87F807E70FDFC1208A38F
:10098E00EFF404F58DF58BD2AFD2AC53890F4389BA
:07099E0020759850D28E2253
:1009C8007FFFED601A1D1203D9F599740129F9E426
:0F09D8003AFA3002FDC202AE071FEE60E580F86A
:0109E70022ED
:0300230002095679
:10095600C0E0C0D075D000C000309904C299D20260
:1009660030980EC29874002521F8E599F2D2000558
:0809760021D000D0D0D0E03206
:100A0500D2AF438E805389F0438902758A6E758C07
:080A15006EC28DD28CD2A92221
:03000B0002001FD1
:03001F00B280327A
:100026000202CEE86480F8E933E83360110460F038
:10003600ED33EC337009E8FCE9FDEAFEEBFF220440
:1000460060DED3EB9FEA9EE99DE8C2E78CF0C2F73B
:1000560095F0400CE8CCF8E9CDF9EACEFAEBCFFB07
:1000660012029985D0F05804700320D5B3E80470C5
:10007600075002B2D50202D892D5EC0460F7E4CC60
:10008600C0E0C398F8603B94186008400DD0E0FBD0
:100096000202B0E4FBFAC9FC8028E830E406E4C9B1
:1000A600FBE4CAFCE830E305E4C9CACBFCE8540724
:1000B6006010F8C3E913F9EA13FAEB13FBEC13FC2F
:1000C600D8F130F52FC3E49CFCEF9BFFEE9AFEEDD2
:1000D60099FDD0E0FBEF4E4D4C701222DB0302027D
:1000E600D5EC2CFCEF33FFEE33FEED33FDED30E7C0
:1000F600EB0202B0EF2BFFEE3AFEED39FDD0E0FB4E
:1001060050130BBB00030202D8ED13FDEE13FEEFF6
:0801160013FFEC13FC0202B020
:10011E00EC4D6011E8497017ED33EC3304600DE4DB
:10012E00FCFFFEFD22E933E8330470F80202CE1222
:10013E00029958046009E4CC248150062850090223
:10014E0002D82840030202D5C0E0EB4A7044B980C1
:10015E0006D0E0FB0202C4EF4E701CBD8008EBFF20
:10016E00EAFEE9FD80EBE98DF0A4FEE5F002020760
:10017E00E9CDF9EAFEEBFFEF89F0A4FCE5F0CE89BC
:10018E00F0A42EFFE435F0CD89F0A42DFEE435F079
:10019E008067EF4E7005BD80D780C3EF8BF0A4ACA7
:1001AE00F0EE8BF0A42CFCE435F0F8EF8AF0A42CE2
:1001BE00E5F038FCE433CB8DF0A42CFCE5F03BF8F5
:1001CE00EE8AF0A42CFCE5F038F8E433CF89F0A4E5
:1001DE002CFCE5F038CF3400CE89F0A42FFFE5F0EB
:1001EE003EFEE433C98DF0A42EFEE5F039CD8AF043
:1001FE00A42FFFE5F03EFEE43DFD33D0E0FB5007BB
:10020E000BBB000F0202D8EC2CFCEF33FFEE33FEDB
:06021E00ED33FD0202B009
:1002240075F020800E75F010800575F0087D007E55
:10023400007F003392D530D503120455EC334010BF
:10024400EF33FFEE33FEED33FDEC33FCD5F0ED225E
:0E025400E5F0247EA2D513CC92E7CDCEFF229A
:10026200EDD2E7CD33EC3392D524814006E4FFFE94
:10027200FDFC22FCE4CFCECDCC24E0501174FF80F3
:10028200EDC3CC13CCCD13CDCE13CECF13CF047090
:07029200F030D5DE02045537
:10029900E9D2E7C933E833F892D5EDD2E7CD33ECAB
:0702A90033FC5002B2D52224
:1002B000EC30E7100FBF000C0EBE00080DBD0004AF
:1002C0000BEB6014A2D5EB13FCED92E7FD2274FF5B
:1002D000FCFDFEFF22E480F8A2D574FF13FC7D80B4
:0302E000E480EFC8
:10079D000206A9E493A3F8E493A34003F68001F2C3
:1007AD0008DFF48029E493A3F85407240CC8C3335D
:1007BD00C4540F4420C8834004F456800146F6DF2C
:1007CD00E4800B0102040810204080900003E47EB9
:1007DD00019360BCA3FF543F30E509541FFEE49321
:1007ED00A360010ECF54C025E060A840B8E493A3E8
:1007FD00FAE493A3F8E493A3C8C582C8CAC583CA13
:10080D00F0A3C8C582C8CAC583CADFE9DEE780BECA
:0100090000F6
:1002E300E709F608DFFA8046E709F208DFFA803EFD
:1002F30088828C83E709F0A3DFFA8032E309F608EA
:10030300DFFA8078E309F208DFFA807088828C8351
:10031300E309F0A3DFFA806489828A83E0A3F60805
:10032300DFFA805889828A83E0A3F208DFFA804CDF
:1003330080D280FA80C680D4806980F280338010B6
:1003430080A680EA809A80A880DA80E280CA80331F
:1003530089828A83ECFAE493A3C8C582C8CCC58397
:10036300CCF0A3C8C582C8CCC583CCDFE9DEE78067
:100373000D89828A83E493A3F608DFF9ECFAA9F0E6
:10038300EDFB2289828A83ECFAE0A3C8C582C8CC3C
:10039300C583CCF0A3C8C582C8CCC583CCDFEADE55
:1003A300E880DB89828A83E493A3F208DFF980CCB7
:1003B30088F0EF60010E4E60C388F0ED2402B404B0
:1003C3000050B9F582EB2402B4040050AF23234557
:0603D30082239003337346
:1003D900BB010689828A83E0225002E722BBFE0222
:0903E900E32289828A83E4932255
:1003F200BB010CE58229F582E5833AF583E02250C0
:1004020006E92582F8E622BBFE06E92582F8E22209
:0D041200E58229F582E5833AF583E4932223
:10041F00C2D5EC30E709B2D5E4C39DFDE49CFCEEF8
:10042F0030E715B2D5E4C39FFFE49EFE120463C309
:10043F00E49DFDE49CFC800312046330D507C3E404
:06044F009FFFE49EFE2267
:1008A300C2D5E830E70FB2D5E4C39BFBE49AFAE480
:1008B30099F9E498F8EC30E717B2D51208D9120485
:1008C300F4E4C39BFBE49AFAE499F9E498F880030F
:1008D3001204F430D50DE4C39FFFE49EFEE49DFDB6
:0408E300E49CFC2273
:0E045500C3E49FFFE49EFEE49DFDE49CFC22B8
:10046300BC000BBE0029EF8DF084FFADF022E4CC7D
:10047300F875F008EF2FFFEE33FEEC33FCEE9DEC46
:10048300984005FCEE9DFE0FD5F0E9E4CEFD22ED8C
:10049300F8F5F0EE8420D21CFEADF075F008EF2FD6
:1004A300FFED33FD4007985006D5F0F222C398FDC7
:0504B3000FD5F0EA2264
:1004B80075F008758200EF2FFFEE33FECD33CDCCFB
:1004C80033CCC58233C5829BED9AEC99E58298407E
:1004D8000CF582EE9BFEED9AFDEC99FC0FD5F0D65B
:1004E800E4CEFBE4CDFAE4CCF9A88222B800C1B985
:1004F8000059BA002DEC8BF084CFCECDFCE5F0CBC3
:10050800F97818EF2FFFEE33FEED33FDEC33FCEBFB
:1005180033FB10D703994004EB99FB0FD8E5E4F9B6
:10052800FA227818EF2FFFEE33FEED33FDEC33FCA3
:10053800C933C910D7059BE99A4007EC9BFCE99A97
:10054800F90FD8E0E4C9FAE4CCFB2275F010EF2FDC
:10055800FFEE33FEED33FDCC33CCC833C810D707DC
:100568009BEC9AE899400AED9BFDEC9AFCE899F817
:0E0578000FD5F0DAE4CDFBE4CCFAE4C8F922AA
:00000001FF
